{
  "contractName": "KittyGram",
  "abi": [
    {
      "constant": true,
      "inputs": [
        {
          "name": "",
          "type": "uint256"
        },
        {
          "name": "",
          "type": "uint256"
        }
      ],
      "name": "KittyMemories",
      "outputs": [
        {
          "name": "ownerAtTheTime",
          "type": "address"
        },
        {
          "name": "ipfsImage",
          "type": "string"
        },
        {
          "name": "ipfsText",
          "type": "string"
        }
      ],
      "payable": false,
      "stateMutability": "view",
      "type": "function"
    },
    {
      "constant": true,
      "inputs": [],
      "name": "owner",
      "outputs": [
        {
          "name": "",
          "type": "address"
        }
      ],
      "payable": false,
      "stateMutability": "view",
      "type": "function"
    },
    {
      "constant": true,
      "inputs": [
        {
          "name": "",
          "type": "uint256"
        }
      ],
      "name": "KittyMemoryCount",
      "outputs": [
        {
          "name": "",
          "type": "uint256"
        }
      ],
      "payable": false,
      "stateMutability": "view",
      "type": "function"
    },
    {
      "constant": true,
      "inputs": [
        {
          "name": "contractName",
          "type": "string"
        },
        {
          "name": "migrationId",
          "type": "string"
        }
      ],
      "name": "isMigrated",
      "outputs": [
        {
          "name": "",
          "type": "bool"
        }
      ],
      "payable": false,
      "stateMutability": "view",
      "type": "function"
    },
    {
      "constant": true,
      "inputs": [],
      "name": "totalMemories",
      "outputs": [
        {
          "name": "",
          "type": "uint256"
        }
      ],
      "payable": false,
      "stateMutability": "view",
      "type": "function"
    },
    {
      "anonymous": false,
      "inputs": [
        {
          "indexed": false,
          "name": "contractName",
          "type": "string"
        },
        {
          "indexed": false,
          "name": "migrationId",
          "type": "string"
        }
      ],
      "name": "Migrated",
      "type": "event"
    },
    {
      "constant": false,
      "inputs": [
        {
          "name": "_owner",
          "type": "address"
        }
      ],
      "name": "initialize",
      "outputs": [],
      "payable": false,
      "stateMutability": "nonpayable",
      "type": "function"
    },
    {
      "constant": false,
      "inputs": [
        {
          "name": "_kittyID",
          "type": "uint256"
        },
        {
          "name": "_ipfsImage",
          "type": "string"
        },
        {
          "name": "_ipfsText",
          "type": "string"
        }
      ],
      "name": "pushMemory",
      "outputs": [],
      "payable": false,
      "stateMutability": "nonpayable",
      "type": "function"
    },
    {
      "constant": true,
      "inputs": [
        {
          "name": "_text",
          "type": "string"
        }
      ],
      "name": "isEmptyString",
      "outputs": [
        {
          "name": "",
          "type": "bool"
        }
      ],
      "payable": false,
      "stateMutability": "pure",
      "type": "function"
    }
  ],
  "bytecode": "0x608060405234801561001057600080fd5b50610d1f806100206000396000f30060806040526004361061008e576000357c0100000000000000000000000000000000000000000000000000000000900463ffffffff168063079af227146100935780638da5cb5b146101e257806398fe674614610239578063a45f379e1461027a578063c0bac1a8146102fb578063c4d66de8146103c2578063eacbb56014610405578063eeba79f2146104be575b600080fd5b34801561009f57600080fd5b506100c860048036038101908080359060200190929190803590602001909291905050506104e9565b604051808473ffffffffffffffffffffffffffffffffffffffff1673ffffffffffffffffffffffffffffffffffffffff1681526020018060200180602001838103835285818151815260200191508051906020019080838360005b8381101561013e578082015181840152602081019050610123565b50505050905090810190601f16801561016b5780820380516001836020036101000a031916815260200191505b50838103825284818151815260200191508051906020019080838360005b838110156101a4578082015181840152602081019050610189565b50505050905090810190601f1680156101d15780820380516001836020036101000a031916815260200191505b509550505050505060405180910390f35b3480156101ee57600080fd5b506101f7610670565b604051808273ffffffffffffffffffffffffffffffffffffffff1673ffffffffffffffffffffffffffffffffffffffff16815260200191505060405180910390f35b34801561024557600080fd5b5061026460048036038101908080359060200190929190505050610696565b6040518082815260200191505060405180910390f35b34801561028657600080fd5b506102e1600480360381019080803590602001908201803590602001908080601f01602080910402602001604051908101604052809392919081815260200183838082843782019150505050505091929192905050506106ae565b604051808215151515815260200191505060405180910390f35b34801561030757600080fd5b506103a8600480360381019080803590602001908201803590602001908080601f0160208091040260200160405190810160405280939291908181526020018383808284378201915050505050509192919290803590602001908201803590602001908080601f01602080910402602001604051908101604052809392919081815260200183838082843782019150505050505091929192905050506106d3565b604051808215151515815260200191505060405180910390f35b3480156103ce57600080fd5b50610403600480360381019080803573ffffffffffffffffffffffffffffffffffffffff1690602001909291905050506107be565b005b34801561041157600080fd5b506104bc60048036038101908080359060200190929190803590602001908201803590602001908080601f0160208091040260200160405190810160405280939291908181526020018383808284378201915050505050509192919290803590602001908201803590602001908080601f0160208091040260200160405190810160405280939291908181526020018383808284378201915050505050509192919290505050610a84565b005b3480156104ca57600080fd5b506104d3610c10565b6040518082815260200191505060405180910390f35b6001602052816000526040600020602052806000526040600020600091509150508060000160009054906101000a900473ffffffffffffffffffffffffffffffffffffffff1690806001018054600181600116156101000203166002900480601f0160208091040260200160405190810160405280929190818152602001828054600181600116156101000203166002900480156105c85780601f1061059d576101008083540402835291602001916105c8565b820191906000526020600020905b8154815290600101906020018083116105ab57829003601f168201915b505050505090806002018054600181600116156101000203166002900480601f0160208091040260200160405190810160405280929190818152602001828054600181600116156101000203166002900480156106665780601f1061063b57610100808354040283529160200191610666565b820191906000526020600020905b81548152906001019060200180831161064957829003601f168201915b5050505050905083565b600460009054906101000a900473ffffffffffffffffffffffffffffffffffffffff1681565b60026020528060005260406000206000915090505481565b600060608290506000815114156106c857600191506106cd565b600091505b50919050565b600080836040518082805190602001908083835b60208310151561070c57805182526020820191506020810190506020830392506106e7565b6001836020036101000a0380198251168184511680821785525050505050509050019150509081526020016040518091039020826040518082805190602001908083835b6020831015156107755780518252602082019150602081019050602083039250610750565b6001836020036101000a038019825116818451168082178552505050505050905001915050908152602001604051809103902060009054906101000a900460ff16905092915050565b6040805190810160405280600981526020017f4b697474794772616d00000000000000000000000000000000000000000000008152506040805190810160405280600181526020017f300000000000000000000000000000000000000000000000000000000000000081525061083482826106d3565b15151561084057600080fd5b600060038190555082600460006101000a81548173ffffffffffffffffffffffffffffffffffffffff021916908373ffffffffffffffffffffffffffffffffffffffff1602179055507fdd117a11c22118c9dee4b5a67ce578bc44529dce21ee0ccc439588fbb9fb4ea38282604051808060200180602001838103835285818151815260200191508051906020019080838360005b838110156108f05780820151818401526020810190506108d5565b50505050905090810190601f16801561091d5780820380516001836020036101000a031916815260200191505b50838103825284818151815260200191508051906020019080838360005b8381101561095657808201518184015260208101905061093b565b50505050905090810190601f1680156109835780820380516001836020036101000a031916815260200191505b5094505050505060405180910390a160016000836040518082805190602001908083835b6020831015156109cc57805182526020820191506020810190506020830392506109a7565b6001836020036101000a0380198251168184511680821785525050505050509050019150509081526020016040518091039020826040518082805190602001908083835b602083101515610a355780518252602082019150602081019050602083039250610a10565b6001836020036101000a038019825116818451168082178552505050505050905001915050908152602001604051809103902060006101000a81548160ff021916908315150217905550505050565b6000610a8e610c16565b60008514151515610a9e57600080fd5b610aa7846106ae565b151515610ab357600080fd5b610abc836106ae565b151515610ac857600080fd5b6001600260008781526020019081526020016000205401915033816000019073ffffffffffffffffffffffffffffffffffffffff16908173ffffffffffffffffffffffffffffffffffffffff16815250508381602001819052508281604001819052508060016000878152602001908152602001600020600084815260200190815260200160002060008201518160000160006101000a81548173ffffffffffffffffffffffffffffffffffffffff021916908373ffffffffffffffffffffffffffffffffffffffff1602179055506020820151816001019080519060200190610bb3929190610c4e565b506040820151816002019080519060200190610bd0929190610c4e565b5090505060026000868152602001908152602001600020600081548092919060010191905055506003600081548092919060010191905055505050505050565b60035481565b606060405190810160405280600073ffffffffffffffffffffffffffffffffffffffff16815260200160608152602001606081525090565b828054600181600116156101000203166002900490600052602060002090601f016020900481019282601f10610c8f57805160ff1916838001178555610cbd565b82800160010185558215610cbd579182015b82811115610cbc578251825591602001919060010190610ca1565b5b509050610cca9190610cce565b5090565b610cf091905b80821115610cec576000816000905550600101610cd4565b5090565b905600a165627a7a72305820b0ab0c00f9386f43a85b7de0e98aff9dfb3ff7b2b06276f0d2b01f98dceae2d30029",
  "source": "pragma solidity ^0.4.23;\nimport \"zos-lib/contracts/migrations/Migratable.sol\";\n\n\ncontract KittyGram is Migratable {\n    \n    //Kitty Memory Format\n    struct kittymemory {\n        address ownerAtTheTime;\n        string ipfsImage;\n        string ipfsText;\n    }\n\n    //Map Kitty ID to a mapping of Integers to KittyMemory Struct and mapping \n    //of how many memories each kitty has\n    mapping(uint =>mapping(uint => kittymemory)) public KittyMemories;\n    mapping(uint => uint) public KittyMemoryCount;\n    \n    //Total Number of Memories Recorded\n    uint public totalMemories;\n    address public owner;\n    //address public ownerOf;\n    \n    \n    //Address of CryptoKitties on Rinkby\n    //address CryptoKittiesContract = 0x7e5f938e0136F4e5deaA8D6Ea5760aeB9604cb1d;\n    //bool public testKittyOwner;\n    \n    \n    function initialize (address _owner) isInitializer(\"KittyGram\", \"0\") public {\n        //Should check that Zeppelin updates don't write this to zero again\n        totalMemories = 0;\n        owner = _owner;\n    }\n    \n    function pushMemory(uint _kittyID, string _ipfsImage, string _ipfsText) public {\n    require(_kittyID != 0);\n    require(!isEmptyString(_ipfsImage));\n    require(!isEmptyString(_ipfsText));\n    \n    \n    //testKittyOwner = CryptoKittiesContract.delegatecall(bytes4(sha3(\"ownerOf(uint256)\")), _kittyID);\n    //FakeCryptoKitty fakeCryptoKitty = FakeCryptoKitty(CryptoKittiesContract);\n    //ownerOf = fakeCryptoKitty.ownerOf(_kittyID);\n \n\n    uint currentMemorySlot = KittyMemoryCount[_kittyID] + 1;\n    \n    kittymemory memory kittyMemory;\n    kittyMemory.ownerAtTheTime = msg.sender;\n    kittyMemory.ipfsImage = _ipfsImage;\n    kittyMemory.ipfsText = _ipfsText;\n    \n    KittyMemories[_kittyID][currentMemorySlot] = kittyMemory;\n    KittyMemoryCount[_kittyID] ++;\n    \n    totalMemories ++;\n    }\n    \n    function isEmptyString(string _text) public pure returns (bool){\n        bytes memory tempEmptyStringTest = bytes(_text); // Uses memory\n        if (tempEmptyStringTest.length == 0) {\n            return true;\n        } else {\n            return false;\n        }\n    }\n    \n}",
  "sourcePath": "/Users/dennison/KittyGram5/contracts/KittyGram.sol",
  "compiler": {
    "name": "solc",
    "version": "0.4.24+commit.e67f0147.Emscripten.clang"
  },
  "schemaVersion": "2.0.0",
  "updatedAt": "2018-05-26T18:04:36.626Z"
}